{
  "contractName": "Stacking",
  "abi": [
    {
      "inputs": [
        {
          "internalType": "contract IDTToken",
          "name": "_token",
          "type": "address"
        },
        {
          "internalType": "address",
          "name": "_devAddress",
          "type": "address"
        },
        {
          "internalType": "uint256",
          "name": "_idtPerBlock",
          "type": "uint256"
        },
        {
          "internalType": "uint256",
          "name": "_startBlock",
          "type": "uint256"
        },
        {
          "internalType": "uint256",
          "name": "_bonusEndBlock",
          "type": "uint256"
        }
      ],
      "stateMutability": "nonpayable",
      "type": "constructor"
    },
    {
      "anonymous": false,
      "inputs": [
        {
          "indexed": true,
          "internalType": "address",
          "name": "user",
          "type": "address"
        },
        {
          "indexed": true,
          "internalType": "uint256",
          "name": "pid",
          "type": "uint256"
        },
        {
          "indexed": false,
          "internalType": "uint256",
          "name": "amount",
          "type": "uint256"
        }
      ],
      "name": "Deposit",
      "type": "event"
    },
    {
      "anonymous": false,
      "inputs": [
        {
          "indexed": true,
          "internalType": "address",
          "name": "previousOwner",
          "type": "address"
        },
        {
          "indexed": true,
          "internalType": "address",
          "name": "newOwner",
          "type": "address"
        }
      ],
      "name": "OwnershipTransferred",
      "type": "event"
    },
    {
      "anonymous": false,
      "inputs": [
        {
          "indexed": true,
          "internalType": "address",
          "name": "user",
          "type": "address"
        },
        {
          "indexed": true,
          "internalType": "uint256",
          "name": "pid",
          "type": "uint256"
        },
        {
          "indexed": false,
          "internalType": "uint256",
          "name": "amount",
          "type": "uint256"
        }
      ],
      "name": "Withdraw",
      "type": "event"
    },
    {
      "inputs": [],
      "name": "BONUS_MULTIPLIER",
      "outputs": [
        {
          "internalType": "uint256",
          "name": "",
          "type": "uint256"
        }
      ],
      "stateMutability": "view",
      "type": "function",
      "constant": true
    },
    {
      "inputs": [],
      "name": "bonusEndBlock",
      "outputs": [
        {
          "internalType": "uint256",
          "name": "",
          "type": "uint256"
        }
      ],
      "stateMutability": "view",
      "type": "function",
      "constant": true
    },
    {
      "inputs": [],
      "name": "devAddress",
      "outputs": [
        {
          "internalType": "address",
          "name": "",
          "type": "address"
        }
      ],
      "stateMutability": "view",
      "type": "function",
      "constant": true
    },
    {
      "inputs": [],
      "name": "idt",
      "outputs": [
        {
          "internalType": "contract IDTToken",
          "name": "",
          "type": "address"
        }
      ],
      "stateMutability": "view",
      "type": "function",
      "constant": true
    },
    {
      "inputs": [],
      "name": "idtPerBlock",
      "outputs": [
        {
          "internalType": "uint256",
          "name": "",
          "type": "uint256"
        }
      ],
      "stateMutability": "view",
      "type": "function",
      "constant": true
    },
    {
      "inputs": [],
      "name": "owner",
      "outputs": [
        {
          "internalType": "address",
          "name": "",
          "type": "address"
        }
      ],
      "stateMutability": "view",
      "type": "function",
      "constant": true
    },
    {
      "inputs": [
        {
          "internalType": "address",
          "name": "",
          "type": "address"
        }
      ],
      "name": "poolBalance",
      "outputs": [
        {
          "internalType": "uint256",
          "name": "",
          "type": "uint256"
        }
      ],
      "stateMutability": "view",
      "type": "function",
      "constant": true
    },
    {
      "inputs": [
        {
          "internalType": "uint256",
          "name": "",
          "type": "uint256"
        }
      ],
      "name": "poolInfo",
      "outputs": [
        {
          "internalType": "address",
          "name": "tokenStack",
          "type": "address"
        },
        {
          "internalType": "uint256",
          "name": "allocPoint",
          "type": "uint256"
        },
        {
          "internalType": "uint256",
          "name": "lastRewardBlock",
          "type": "uint256"
        },
        {
          "internalType": "uint256",
          "name": "accIDTPerShare",
          "type": "uint256"
        }
      ],
      "stateMutability": "view",
      "type": "function",
      "constant": true
    },
    {
      "inputs": [],
      "name": "renounceOwnership",
      "outputs": [],
      "stateMutability": "nonpayable",
      "type": "function"
    },
    {
      "inputs": [],
      "name": "stackCount",
      "outputs": [
        {
          "internalType": "uint256",
          "name": "",
          "type": "uint256"
        }
      ],
      "stateMutability": "view",
      "type": "function",
      "constant": true
    },
    {
      "inputs": [
        {
          "internalType": "uint256",
          "name": "",
          "type": "uint256"
        },
        {
          "internalType": "address",
          "name": "",
          "type": "address"
        }
      ],
      "name": "stackers",
      "outputs": [
        {
          "internalType": "uint256",
          "name": "",
          "type": "uint256"
        }
      ],
      "stateMutability": "view",
      "type": "function",
      "constant": true
    },
    {
      "inputs": [],
      "name": "startBlock",
      "outputs": [
        {
          "internalType": "uint256",
          "name": "",
          "type": "uint256"
        }
      ],
      "stateMutability": "view",
      "type": "function",
      "constant": true
    },
    {
      "inputs": [],
      "name": "totalAllocPoint",
      "outputs": [
        {
          "internalType": "uint256",
          "name": "",
          "type": "uint256"
        }
      ],
      "stateMutability": "view",
      "type": "function",
      "constant": true
    },
    {
      "inputs": [
        {
          "internalType": "address",
          "name": "newOwner",
          "type": "address"
        }
      ],
      "name": "transferOwnership",
      "outputs": [],
      "stateMutability": "nonpayable",
      "type": "function"
    },
    {
      "inputs": [],
      "name": "poolLength",
      "outputs": [
        {
          "internalType": "uint256",
          "name": "",
          "type": "uint256"
        }
      ],
      "stateMutability": "view",
      "type": "function",
      "constant": true
    },
    {
      "inputs": [
        {
          "internalType": "uint256",
          "name": "_allocPoint",
          "type": "uint256"
        },
        {
          "internalType": "address",
          "name": "_lpToken",
          "type": "address"
        },
        {
          "internalType": "bool",
          "name": "_withUpdate",
          "type": "bool"
        }
      ],
      "name": "add",
      "outputs": [],
      "stateMutability": "nonpayable",
      "type": "function"
    },
    {
      "inputs": [
        {
          "internalType": "uint256",
          "name": "_amount",
          "type": "uint256"
        },
        {
          "internalType": "uint256",
          "name": "_id",
          "type": "uint256"
        }
      ],
      "name": "deposit",
      "outputs": [],
      "stateMutability": "payable",
      "type": "function",
      "payable": true
    },
    {
      "inputs": [
        {
          "internalType": "uint256",
          "name": "_amount",
          "type": "uint256"
        },
        {
          "internalType": "uint256",
          "name": "_id",
          "type": "uint256"
        }
      ],
      "name": "withdraw",
      "outputs": [],
      "stateMutability": "payable",
      "type": "function",
      "payable": true
    },
    {
      "inputs": [
        {
          "internalType": "uint256",
          "name": "_pid",
          "type": "uint256"
        }
      ],
      "name": "updatePool",
      "outputs": [],
      "stateMutability": "nonpayable",
      "type": "function"
    },
    {
      "inputs": [],
      "name": "massUpdatePools",
      "outputs": [],
      "stateMutability": "nonpayable",
      "type": "function"
    },
    {
      "inputs": [
        {
          "internalType": "uint256",
          "name": "_from",
          "type": "uint256"
        },
        {
          "internalType": "uint256",
          "name": "_to",
          "type": "uint256"
        }
      ],
      "name": "getMultiplier",
      "outputs": [
        {
          "internalType": "uint256",
          "name": "",
          "type": "uint256"
        }
      ],
      "stateMutability": "view",
      "type": "function",
      "constant": true
    },
    {
      "inputs": [
        {
          "internalType": "uint256",
          "name": "_id",
          "type": "uint256"
        },
        {
          "internalType": "address",
          "name": "_user",
          "type": "address"
        }
      ],
      "name": "stackingBalanceOf",
      "outputs": [
        {
          "internalType": "uint256",
          "name": "",
          "type": "uint256"
        }
      ],
      "stateMutability": "view",
      "type": "function",
      "constant": true
    },
    {
      "inputs": [
        {
          "internalType": "address",
          "name": "_token",
          "type": "address"
        }
      ],
      "name": "balanceOfPool",
      "outputs": [
        {
          "internalType": "uint256",
          "name": "",
          "type": "uint256"
        }
      ],
      "stateMutability": "view",
      "type": "function",
      "constant": true
    },
    {
      "inputs": [
        {
          "internalType": "uint256",
          "name": "_pid",
          "type": "uint256"
        }
      ],
      "name": "pendingIDT",
      "outputs": [
        {
          "internalType": "uint256",
          "name": "",
          "type": "uint256"
        }
      ],
      "stateMutability": "nonpayable",
      "type": "function"
    },
    {
      "inputs": [
        {
          "internalType": "address",
          "name": "_token",
          "type": "address"
        },
        {
          "internalType": "address",
          "name": "_spender",
          "type": "address"
        },
        {
          "internalType": "uint256",
          "name": "_value",
          "type": "uint256"
        }
      ],
      "name": "getERCapprove",
      "outputs": [
        {
          "internalType": "bool",
          "name": "",
          "type": "bool"
        }
      ],
      "stateMutability": "nonpayable",
      "type": "function"
    },
    {
      "inputs": [
        {
          "internalType": "address",
          "name": "_token",
          "type": "address"
        },
        {
          "internalType": "address",
          "name": "_from",
          "type": "address"
        },
        {
          "internalType": "address",
          "name": "_to",
          "type": "address"
        },
        {
          "internalType": "uint256",
          "name": "_value",
          "type": "uint256"
        }
      ],
      "name": "getERCtransferFrom",
      "outputs": [
        {
          "internalType": "bool",
          "name": "",
          "type": "bool"
        }
      ],
      "stateMutability": "nonpayable",
      "type": "function"
    },
    {
      "inputs": [
        {
          "internalType": "address",
          "name": "_token",
          "type": "address"
        },
        {
          "internalType": "address",
          "name": "_owner",
          "type": "address"
        }
      ],
      "name": "getERCBalance",
      "outputs": [
        {
          "internalType": "uint256",
          "name": "",
          "type": "uint256"
        }
      ],
      "stateMutability": "nonpayable",
      "type": "function"
    },
    {
      "inputs": [
        {
          "internalType": "address",
          "name": "_token",
          "type": "address"
        },
        {
          "internalType": "address",
          "name": "_to",
          "type": "address"
        },
        {
          "internalType": "uint256",
          "name": "_value",
          "type": "uint256"
        }
      ],
      "name": "getERCtransfer",
      "outputs": [
        {
          "internalType": "bool",
          "name": "",
          "type": "bool"
        }
      ],
      "stateMutability": "nonpayable",
      "type": "function"
    },
    {
      "inputs": [
        {
          "internalType": "address",
          "name": "_token",
          "type": "address"
        }
      ],
      "name": "getERCname",
      "outputs": [
        {
          "internalType": "string",
          "name": "",
          "type": "string"
        }
      ],
      "stateMutability": "nonpayable",
      "type": "function"
    },
    {
      "inputs": [
        {
          "internalType": "address",
          "name": "_token",
          "type": "address"
        }
      ],
      "name": "getERCsymbol",
      "outputs": [
        {
          "internalType": "string",
          "name": "",
          "type": "string"
        }
      ],
      "stateMutability": "nonpayable",
      "type": "function"
    }
  ],
  "bytecode": "0x608060405260405162000012906200023b565b604051809103906000f0801580156200002f573d6000803e3d6000fd5b50600660006101000a81548173ffffffffffffffffffffffffffffffffffffffff021916908373ffffffffffffffffffffffffffffffffffffffff1602179055506000600b553480156200008257600080fd5b5060405162003c3738038062003c37833981810160405260a0811015620000a857600080fd5b8101908080519060200190929190805190602001909291908051906020019092919080519060200190929190805190602001909291905050506000620000f36200023360201b60201c565b9050806000806101000a81548173ffffffffffffffffffffffffffffffffffffffff021916908373ffffffffffffffffffffffffffffffffffffffff1602179055508073ffffffffffffffffffffffffffffffffffffffff16600073ffffffffffffffffffffffffffffffffffffffff167f8be0079c531659141344cd1fd0a4f28419497f9722a3daafe3b4186f6b6457e060405160405180910390a35084600560006101000a81548173ffffffffffffffffffffffffffffffffffffffff021916908373ffffffffffffffffffffffffffffffffffffffff16021790555083600a60006101000a81548173ffffffffffffffffffffffffffffffffffffffff021916908373ffffffffffffffffffffffffffffffffffffffff160217905550826009819055508060088190555081600481905550505050505062000249565b600033905090565b610e608062002dd783390190565b612b7e80620002596000396000f3fe6080604052600436106101cd5760003560e01c806368abb5e0116100f7578063b0f6379411610095578063e2bbb15811610064578063e2bbb15814610a61578063ed0816de14610a99578063f2fde38b14610b4c578063f36ab03714610b9d576101cd565b8063b0f6379414610937578063b9ca62e41461099c578063d4708fc414610a0b578063df9dac7514610a36576101cd565b8063749400ff116100d1578063749400ff146107d75780638aa285501461085c5780638da5cb5b146108875780638dbb1e3a146108de576101cd565b806368abb5e0146106ec5780636d7af5b114610751578063715018a6146107c0576101cd565b80633ad10ef61161016f5780635bfa898b1161013e5780635bfa898b1461059c578063630b5ba11461062f578063653c39141461064657806366f2ac5214610695576101cd565b80633ad10ef6146104a7578063441a3e70146104fe57806348cd4cb11461053657806351eb05a614610561576101cd565b80631526fe27116101ab5780631526fe271461035a57806317caf6f1146103ea5780631aed6553146104155780631eaaa04514610440576101cd565b8063081e3eda146101d25780630b0cc957146101fd57806313cc367e14610290575b600080fd5b3480156101de57600080fd5b506101e7610c67565b6040518082815260200191505060405180910390f35b34801561020957600080fd5b506102766004803603606081101561022057600080fd5b81019080803573ffffffffffffffffffffffffffffffffffffffff169060200190929190803573ffffffffffffffffffffffffffffffffffffffff16906020019092919080359060200190929190505050610c74565b604051808215151515815260200191505060405180910390f35b34801561029c57600080fd5b506102df600480360360208110156102b357600080fd5b81019080803573ffffffffffffffffffffffffffffffffffffffff169060200190929190505050610da4565b6040518080602001828103825283818151815260200191508051906020019080838360005b8381101561031f578082015181840152602081019050610304565b50505050905090810190601f16801561034c5780820380516001836020036101000a031916815260200191505b509250505060405180910390f35b34801561036657600080fd5b506103936004803603602081101561037d57600080fd5b8101908080359060200190929190505050610f4f565b604051808573ffffffffffffffffffffffffffffffffffffffff1673ffffffffffffffffffffffffffffffffffffffff16815260200184815260200183815260200182815260200194505050505060405180910390f35b3480156103f657600080fd5b506103ff610fac565b6040518082815260200191505060405180910390f35b34801561042157600080fd5b5061042a610fb2565b6040518082815260200191505060405180910390f35b34801561044c57600080fd5b506104a56004803603606081101561046357600080fd5b8101908080359060200190929190803573ffffffffffffffffffffffffffffffffffffffff169060200190929190803515159060200190929190505050610fb8565b005b3480156104b357600080fd5b506104bc611192565b604051808273ffffffffffffffffffffffffffffffffffffffff1673ffffffffffffffffffffffffffffffffffffffff16815260200191505060405180910390f35b6105346004803603604081101561051457600080fd5b8101908080359060200190929190803590602001909291905050506111b8565b005b34801561054257600080fd5b5061054b611419565b6040518082815260200191505060405180910390f35b34801561056d57600080fd5b5061059a6004803603602081101561058457600080fd5b810190808035906020019092919050505061141f565b005b3480156105a857600080fd5b50610615600480360360608110156105bf57600080fd5b81019080803573ffffffffffffffffffffffffffffffffffffffff169060200190929190803573ffffffffffffffffffffffffffffffffffffffff169060200190929190803590602001909291905050506116ff565b604051808215151515815260200191505060405180910390f35b34801561063b57600080fd5b5061064461182f565b005b34801561065257600080fd5b5061067f6004803603602081101561066957600080fd5b810190808035906020019092919050505061185f565b6040518082815260200191505060405180910390f35b3480156106a157600080fd5b506106aa6119ed565b604051808273ffffffffffffffffffffffffffffffffffffffff1673ffffffffffffffffffffffffffffffffffffffff16815260200191505060405180910390f35b3480156106f857600080fd5b5061073b6004803603602081101561070f57600080fd5b81019080803573ffffffffffffffffffffffffffffffffffffffff169060200190929190505050611a13565b6040518082815260200191505060405180910390f35b34801561075d57600080fd5b506107aa6004803603604081101561077457600080fd5b8101908080359060200190929190803573ffffffffffffffffffffffffffffffffffffffff169060200190929190505050611a2b565b6040518082815260200191505060405180910390f35b3480156107cc57600080fd5b506107d5611a86565b005b3480156107e357600080fd5b50610846600480360360408110156107fa57600080fd5b81019080803573ffffffffffffffffffffffffffffffffffffffff169060200190929190803573ffffffffffffffffffffffffffffffffffffffff169060200190929190505050611c0e565b6040518082815260200191505060405180910390f35b34801561086857600080fd5b50610871611d33565b6040518082815260200191505060405180910390f35b34801561089357600080fd5b5061089c611d38565b604051808273ffffffffffffffffffffffffffffffffffffffff1673ffffffffffffffffffffffffffffffffffffffff16815260200191505060405180910390f35b3480156108ea57600080fd5b506109216004803603604081101561090157600080fd5b810190808035906020019092919080359060200190929190505050611d61565b6040518082815260200191505060405180910390f35b34801561094357600080fd5b506109866004803603602081101561095a57600080fd5b81019080803573ffffffffffffffffffffffffffffffffffffffff169060200190929190505050611e13565b6040518082815260200191505060405180910390f35b3480156109a857600080fd5b506109f5600480360360408110156109bf57600080fd5b8101908080359060200190929190803573ffffffffffffffffffffffffffffffffffffffff169060200190929190505050611e5c565b6040518082815260200191505060405180910390f35b348015610a1757600080fd5b50610a20611e81565b6040518082815260200191505060405180910390f35b348015610a4257600080fd5b50610a4b611e87565b6040518082815260200191505060405180910390f35b610a9760048036036040811015610a7757600080fd5b810190808035906020019092919080359060200190929190505050611e8d565b005b348015610aa557600080fd5b50610b3260048036036080811015610abc57600080fd5b81019080803573ffffffffffffffffffffffffffffffffffffffff169060200190929190803573ffffffffffffffffffffffffffffffffffffffff169060200190929190803573ffffffffffffffffffffffffffffffffffffffff16906020019092919080359060200190929190505050611ff9565b604051808215151515815260200191505060405180910390f35b348015610b5857600080fd5b50610b9b60048036036020811015610b6f57600080fd5b81019080803573ffffffffffffffffffffffffffffffffffffffff16906020019092919050505061215e565b005b348015610ba957600080fd5b50610bec60048036036020811015610bc057600080fd5b81019080803573ffffffffffffffffffffffffffffffffffffffff16906020019092919050505061236b565b6040518080602001828103825283818151815260200191508051906020019080838360005b83811015610c2c578082015181840152602081019050610c11565b50505050905090810190601f168015610c595780820380516001836020036101000a031916815260200191505b509250505060405180910390f35b6000600780549050905090565b600083600660006101000a81548173ffffffffffffffffffffffffffffffffffffffff021916908373ffffffffffffffffffffffffffffffffffffffff160217905550600660009054906101000a900473ffffffffffffffffffffffffffffffffffffffff1673ffffffffffffffffffffffffffffffffffffffff1663a9059cbb84846040518363ffffffff1660e01b8152600401808373ffffffffffffffffffffffffffffffffffffffff1673ffffffffffffffffffffffffffffffffffffffff16815260200182815260200192505050602060405180830381600087803b158015610d6057600080fd5b505af1158015610d74573d6000803e3d6000fd5b505050506040513d6020811015610d8a57600080fd5b810190808051906020019092919050505090509392505050565b606081600660006101000a81548173ffffffffffffffffffffffffffffffffffffffff021916908373ffffffffffffffffffffffffffffffffffffffff160217905550600660009054906101000a900473ffffffffffffffffffffffffffffffffffffffff1673ffffffffffffffffffffffffffffffffffffffff166395d89b416040518163ffffffff1660e01b815260040160006040518083038186803b158015610e4f57600080fd5b505afa158015610e63573d6000803e3d6000fd5b505050506040513d6000823e3d601f19601f820116820180604052506020811015610e8d57600080fd5b8101908080516040519392919084640100000000821115610ead57600080fd5b83820191506020820185811115610ec357600080fd5b8251866001820283011164010000000082111715610ee057600080fd5b8083526020830192505050908051906020019080838360005b83811015610f14578082015181840152602081019050610ef9565b50505050905090810190601f168015610f415780820380516001836020036101000a031916815260200191505b506040525050509050919050565b60078181548110610f5c57fe5b90600052602060002090600402016000915090508060000160009054906101000a900473ffffffffffffffffffffffffffffffffffffffff16908060010154908060020154908060030154905084565b600b5481565b60085481565b610fc0612516565b73ffffffffffffffffffffffffffffffffffffffff166000809054906101000a900473ffffffffffffffffffffffffffffffffffffffff1673ffffffffffffffffffffffffffffffffffffffff1614611081576040517f08c379a00000000000000000000000000000000000000000000000000000000081526004018080602001828103825260208152602001807f4f776e61626c653a2063616c6c6572206973206e6f7420746865206f776e657281525060200191505060405180910390fd5b80156110905761108f61182f565b5b600060045443116110a3576004546110a5565b435b90506110bc84600b5461251e90919063ffffffff16565b600b81905550600760405180608001604052808573ffffffffffffffffffffffffffffffffffffffff1681526020018681526020018381526020016000815250908060018154018082558091505060019003906000526020600020906004020160009091909190915060008201518160000160006101000a81548173ffffffffffffffffffffffffffffffffffffffff021916908373ffffffffffffffffffffffffffffffffffffffff160217905550602082015181600101556040820151816002015560608201518160030155505050505050565b600a60009054906101000a900473ffffffffffffffffffffffffffffffffffffffff1681565b6000600782815481106111c757fe5b90600052602060002090600402019050826002600084815260200190815260200160002060003373ffffffffffffffffffffffffffffffffffffffff1673ffffffffffffffffffffffffffffffffffffffff16815260200190815260200160002054101561123457600080fd5b61123d8261141f565b60006112bd64e8d4a510006112af84600301546002600088815260200190815260200160002060003373ffffffffffffffffffffffffffffffffffffffff1673ffffffffffffffffffffffffffffffffffffffff168152602001908152602001600020546125a690919063ffffffff16565b61262c90919063ffffffff16565b905060008111156112d3576112d23382612676565b5b60008411156113c45761133f846002600086815260200190815260200160002060003373ffffffffffffffffffffffffffffffffffffffff1673ffffffffffffffffffffffffffffffffffffffff1681526020019081526020016000205461293190919063ffffffff16565b6002600085815260200190815260200160002060003373ffffffffffffffffffffffffffffffffffffffff1673ffffffffffffffffffffffffffffffffffffffff168152602001908152602001600020819055506113c28260000160009054906101000a900473ffffffffffffffffffffffffffffffffffffffff163386610c74565b505b823373ffffffffffffffffffffffffffffffffffffffff167ff279e6a1f5e320cca91135676d9cb6e44ca8a08c0b88342bcdb1144f6511b568866040518082815260200191505060405180910390a350505050565b60045481565b60006007828154811061142e57fe5b906000526020600020906004020190508060020154431161144f57506116fc565b600061147f8260000160009054906101000a900473ffffffffffffffffffffffffffffffffffffffff1630611c0e565b9050600081141561149a5743826002018190555050506116fc565b60006114aa836002015443611d61565b905060006114ed600b546114df86600101546114d1600954876125a690919063ffffffff16565b6125a690919063ffffffff16565b61262c90919063ffffffff16565b9050600560009054906101000a900473ffffffffffffffffffffffffffffffffffffffff1673ffffffffffffffffffffffffffffffffffffffff166340c10f19600a60009054906101000a900473ffffffffffffffffffffffffffffffffffffffff16611564600a8561262c90919063ffffffff16565b6040518363ffffffff1660e01b8152600401808373ffffffffffffffffffffffffffffffffffffffff1673ffffffffffffffffffffffffffffffffffffffff16815260200182815260200192505050600060405180830381600087803b1580156115cd57600080fd5b505af11580156115e1573d6000803e3d6000fd5b50505050600560009054906101000a900473ffffffffffffffffffffffffffffffffffffffff1673ffffffffffffffffffffffffffffffffffffffff166340c10f1930836040518363ffffffff1660e01b8152600401808373ffffffffffffffffffffffffffffffffffffffff1673ffffffffffffffffffffffffffffffffffffffff16815260200182815260200192505050600060405180830381600087803b15801561168e57600080fd5b505af11580156116a2573d6000803e3d6000fd5b505050506116e66116d3846116c564e8d4a51000856125a690919063ffffffff16565b61262c90919063ffffffff16565b856003015461251e90919063ffffffff16565b8460030181905550438460020181905550505050505b50565b600083600660006101000a81548173ffffffffffffffffffffffffffffffffffffffff021916908373ffffffffffffffffffffffffffffffffffffffff160217905550600660009054906101000a900473ffffffffffffffffffffffffffffffffffffffff1673ffffffffffffffffffffffffffffffffffffffff1663095ea7b384846040518363ffffffff1660e01b8152600401808373ffffffffffffffffffffffffffffffffffffffff1673ffffffffffffffffffffffffffffffffffffffff16815260200182815260200192505050602060405180830381600087803b1580156117eb57600080fd5b505af11580156117ff573d6000803e3d6000fd5b505050506040513d602081101561181557600080fd5b810190808051906020019092919050505090509392505050565b6000600780549050905060008090505b8181101561185b576118508161141f565b80600101905061183f565b5050565b6000806007838154811061186f57fe5b9060005260206000209060040201905060008160030154905060006118b88360000160009054906101000a900473ffffffffffffffffffffffffffffffffffffffff1630611c0e565b90508260020154431180156118ce575060008114155b156119695760006118e3846002015443611d61565b90506000611926600b54611918876001015461190a600954876125a690919063ffffffff16565b6125a690919063ffffffff16565b61262c90919063ffffffff16565b90506119646119558461194764e8d4a51000856125a690919063ffffffff16565b61262c90919063ffffffff16565b8561251e90919063ffffffff16565b935050505b6119e364e8d4a510006119d584600260008a815260200190815260200160002060003373ffffffffffffffffffffffffffffffffffffffff1673ffffffffffffffffffffffffffffffffffffffff168152602001908152602001600020546125a690919063ffffffff16565b61262c90919063ffffffff16565b9350505050919050565b600560009054906101000a900473ffffffffffffffffffffffffffffffffffffffff1681565b60016020528060005260406000206000915090505481565b60006002600084815260200190815260200160002060008373ffffffffffffffffffffffffffffffffffffffff1673ffffffffffffffffffffffffffffffffffffffff16815260200190815260200160002054905092915050565b611a8e612516565b73ffffffffffffffffffffffffffffffffffffffff166000809054906101000a900473ffffffffffffffffffffffffffffffffffffffff1673ffffffffffffffffffffffffffffffffffffffff1614611b4f576040517f08c379a00000000000000000000000000000000000000000000000000000000081526004018080602001828103825260208152602001807f4f776e61626c653a2063616c6c6572206973206e6f7420746865206f776e657281525060200191505060405180910390fd5b600073ffffffffffffffffffffffffffffffffffffffff166000809054906101000a900473ffffffffffffffffffffffffffffffffffffffff1673ffffffffffffffffffffffffffffffffffffffff167f8be0079c531659141344cd1fd0a4f28419497f9722a3daafe3b4186f6b6457e060405160405180910390a360008060006101000a81548173ffffffffffffffffffffffffffffffffffffffff021916908373ffffffffffffffffffffffffffffffffffffffff160217905550565b600082600660006101000a81548173ffffffffffffffffffffffffffffffffffffffff021916908373ffffffffffffffffffffffffffffffffffffffff160217905550600660009054906101000a900473ffffffffffffffffffffffffffffffffffffffff1673ffffffffffffffffffffffffffffffffffffffff166370a08231836040518263ffffffff1660e01b8152600401808273ffffffffffffffffffffffffffffffffffffffff1673ffffffffffffffffffffffffffffffffffffffff16815260200191505060206040518083038186803b158015611cf057600080fd5b505afa158015611d04573d6000803e3d6000fd5b505050506040513d6020811015611d1a57600080fd5b8101908080519060200190929190505050905092915050565b600a81565b60008060009054906101000a900473ffffffffffffffffffffffffffffffffffffffff16905090565b60006008548211611d9957611d92600a611d84858561293190919063ffffffff16565b6125a690919063ffffffff16565b9050611e0d565b6008548310611dbc57611db5838361293190919063ffffffff16565b9050611e0d565b611e0a611dd46008548461293190919063ffffffff16565b611dfc600a611dee8760085461293190919063ffffffff16565b6125a690919063ffffffff16565b61251e90919063ffffffff16565b90505b92915050565b6000600160008373ffffffffffffffffffffffffffffffffffffffff1673ffffffffffffffffffffffffffffffffffffffff168152602001908152602001600020549050919050565b6002602052816000526040600020602052806000526040600020600091509150505481565b60095481565b60035481565b600060078281548110611e9c57fe5b90600052602060002090600402019050611eb58261141f565b611f18836002600085815260200190815260200160002060003373ffffffffffffffffffffffffffffffffffffffff1673ffffffffffffffffffffffffffffffffffffffff1681526020019081526020016000205461251e90919063ffffffff16565b6002600084815260200190815260200160002060003373ffffffffffffffffffffffffffffffffffffffff1673ffffffffffffffffffffffffffffffffffffffff16815260200190815260200160002081905550611f9c8160000160009054906101000a900473ffffffffffffffffffffffffffffffffffffffff16333086611ff9565b611fa557600080fd5b813373ffffffffffffffffffffffffffffffffffffffff167f90890809c654f11d6e72a28fa60149770a0d11ec6c92319d6ceb2bb0a4ea1a15856040518082815260200191505060405180910390a3505050565b600084600660006101000a81548173ffffffffffffffffffffffffffffffffffffffff021916908373ffffffffffffffffffffffffffffffffffffffff160217905550600660009054906101000a900473ffffffffffffffffffffffffffffffffffffffff1673ffffffffffffffffffffffffffffffffffffffff166323b872dd8585856040518463ffffffff1660e01b8152600401808473ffffffffffffffffffffffffffffffffffffffff1673ffffffffffffffffffffffffffffffffffffffff1681526020018373ffffffffffffffffffffffffffffffffffffffff1673ffffffffffffffffffffffffffffffffffffffff1681526020018281526020019350505050602060405180830381600087803b15801561211957600080fd5b505af115801561212d573d6000803e3d6000fd5b505050506040513d602081101561214357600080fd5b81019080805190602001909291905050509050949350505050565b612166612516565b73ffffffffffffffffffffffffffffffffffffffff166000809054906101000a900473ffffffffffffffffffffffffffffffffffffffff1673ffffffffffffffffffffffffffffffffffffffff1614612227576040517f08c379a00000000000000000000000000000000000000000000000000000000081526004018080602001828103825260208152602001807f4f776e61626c653a2063616c6c6572206973206e6f7420746865206f776e657281525060200191505060405180910390fd5b600073ffffffffffffffffffffffffffffffffffffffff168173ffffffffffffffffffffffffffffffffffffffff1614156122ad576040517f08c379a0000000000000000000000000000000000000000000000000000000008152600401808060200182810382526026815260200180612b026026913960400191505060405180910390fd5b8073ffffffffffffffffffffffffffffffffffffffff166000809054906101000a900473ffffffffffffffffffffffffffffffffffffffff1673ffffffffffffffffffffffffffffffffffffffff167f8be0079c531659141344cd1fd0a4f28419497f9722a3daafe3b4186f6b6457e060405160405180910390a3806000806101000a81548173ffffffffffffffffffffffffffffffffffffffff021916908373ffffffffffffffffffffffffffffffffffffffff16021790555050565b606081600660006101000a81548173ffffffffffffffffffffffffffffffffffffffff021916908373ffffffffffffffffffffffffffffffffffffffff160217905550600660009054906101000a900473ffffffffffffffffffffffffffffffffffffffff1673ffffffffffffffffffffffffffffffffffffffff166306fdde036040518163ffffffff1660e01b815260040160006040518083038186803b15801561241657600080fd5b505afa15801561242a573d6000803e3d6000fd5b505050506040513d6000823e3d601f19601f82011682018060405250602081101561245457600080fd5b810190808051604051939291908464010000000082111561247457600080fd5b8382019150602082018581111561248a57600080fd5b82518660018202830111640100000000821117156124a757600080fd5b8083526020830192505050908051906020019080838360005b838110156124db5780820151818401526020810190506124c0565b50505050905090810190601f1680156125085780820380516001836020036101000a031916815260200191505b506040525050509050919050565b600033905090565b60008082840190508381101561259c576040517f08c379a000000000000000000000000000000000000000000000000000000000815260040180806020018281038252601b8152602001807f536166654d6174683a206164646974696f6e206f766572666c6f77000000000081525060200191505060405180910390fd5b8091505092915050565b6000808314156125b95760009050612626565b60008284029050828482816125ca57fe5b0414612621576040517f08c379a0000000000000000000000000000000000000000000000000000000008152600401808060200182810382526021815260200180612b286021913960400191505060405180910390fd5b809150505b92915050565b600061266e83836040518060400160405280601a81526020017f536166654d6174683a206469766973696f6e206279207a65726f00000000000081525061297b565b905092915050565b6000600560009054906101000a900473ffffffffffffffffffffffffffffffffffffffff1673ffffffffffffffffffffffffffffffffffffffff166370a08231306040518263ffffffff1660e01b8152600401808273ffffffffffffffffffffffffffffffffffffffff1673ffffffffffffffffffffffffffffffffffffffff16815260200191505060206040518083038186803b15801561271757600080fd5b505afa15801561272b573d6000803e3d6000fd5b505050506040513d602081101561274157600080fd5b810190808051906020019092919050505090508082111561284657600560009054906101000a900473ffffffffffffffffffffffffffffffffffffffff1673ffffffffffffffffffffffffffffffffffffffff1663a9059cbb84836040518363ffffffff1660e01b8152600401808373ffffffffffffffffffffffffffffffffffffffff1673ffffffffffffffffffffffffffffffffffffffff16815260200182815260200192505050602060405180830381600087803b15801561280557600080fd5b505af1158015612819573d6000803e3d6000fd5b505050506040513d602081101561282f57600080fd5b81019080805190602001909291905050505061292c565b600560009054906101000a900473ffffffffffffffffffffffffffffffffffffffff1673ffffffffffffffffffffffffffffffffffffffff1663a9059cbb84846040518363ffffffff1660e01b8152600401808373ffffffffffffffffffffffffffffffffffffffff1673ffffffffffffffffffffffffffffffffffffffff16815260200182815260200192505050602060405180830381600087803b1580156128ef57600080fd5b505af1158015612903573d6000803e3d6000fd5b505050506040513d602081101561291957600080fd5b8101908080519060200190929190505050505b505050565b600061297383836040518060400160405280601e81526020017f536166654d6174683a207375627472616374696f6e206f766572666c6f770000815250612a41565b905092915050565b60008083118290612a27576040517f08c379a00000000000000000000000000000000000000000000000000000000081526004018080602001828103825283818151815260200191508051906020019080838360005b838110156129ec5780820151818401526020810190506129d1565b50505050905090810190601f168015612a195780820380516001836020036101000a031916815260200191505b509250505060405180910390fd5b506000838581612a3357fe5b049050809150509392505050565b6000838311158290612aee576040517f08c379a00000000000000000000000000000000000000000000000000000000081526004018080602001828103825283818151815260200191508051906020019080838360005b83811015612ab3578082015181840152602081019050612a98565b50505050905090810190601f168015612ae05780820380516001836020036101000a031916815260200191505b509250505060405180910390fd5b506000838503905080915050939250505056fe4f776e61626c653a206e6577206f776e657220697320746865207a65726f2061646472657373536166654d6174683a206d756c7469706c69636174696f6e206f766572666c6f77a26469706673582212203a3c50a84244e018af044db302bf821be39bfe83911fefe651b4f58031be7b7364736f6c6343000602003360806040526040518060400160405280601b81526020017f4d616465696e647265616d732045786368616e676520546f6b656e00000000008152506000908051906020019061004f92919061010b565b506040518060400160405280600381526020017f4d455400000000000000000000000000000000000000000000000000000000008152506001908051906020019061009b92919061010b565b5060126002553480156100ad57600080fd5b50600254600a0a6305f5e10002600381905550600354600460003373ffffffffffffffffffffffffffffffffffffffff1673ffffffffffffffffffffffffffffffffffffffff168152602001908152602001600020819055506101b0565b828054600181600116156101000203166002900490600052602060002090601f016020900481019282601f1061014c57805160ff191683800117855561017a565b8280016001018555821561017a579182015b8281111561017957825182559160200191906001019061015e565b5b509050610187919061018b565b5090565b6101ad91905b808211156101a9576000816000905550600101610191565b5090565b90565b610ca1806101bf6000396000f3fe608060405234801561001057600080fd5b50600436106100935760003560e01c8063313ce56711610066578063313ce5671461022557806370a082311461024357806395d89b411461029b578063a9059cbb1461031e578063dd62ed3e1461038457610093565b806306fdde0314610098578063095ea7b31461011b57806318160ddd1461018157806323b872dd1461019f575b600080fd5b6100a06103fc565b6040518080602001828103825283818151815260200191508051906020019080838360005b838110156100e05780820151818401526020810190506100c5565b50505050905090810190601f16801561010d5780820380516001836020036101000a031916815260200191505b509250505060405180910390f35b6101676004803603604081101561013157600080fd5b81019080803573ffffffffffffffffffffffffffffffffffffffff1690602001909291908035906020019092919050505061049a565b604051808215151515815260200191505060405180910390f35b6101896105c5565b6040518082815260200191505060405180910390f35b61020b600480360360608110156101b557600080fd5b81019080803573ffffffffffffffffffffffffffffffffffffffff169060200190929190803573ffffffffffffffffffffffffffffffffffffffff169060200190929190803590602001909291905050506105cb565b604051808215151515815260200191505060405180910390f35b61022d6107c7565b6040518082815260200191505060405180910390f35b6102856004803603602081101561025957600080fd5b81019080803573ffffffffffffffffffffffffffffffffffffffff1690602001909291905050506107cd565b6040518082815260200191505060405180910390f35b6102a36107e5565b6040518080602001828103825283818151815260200191508051906020019080838360005b838110156102e35780820151818401526020810190506102c8565b50505050905090810190601f1680156103105780820380516001836020036101000a031916815260200191505b509250505060405180910390f35b61036a6004803603604081101561033457600080fd5b81019080803573ffffffffffffffffffffffffffffffffffffffff16906020019092919080359060200190929190505050610883565b604051808215151515815260200191505060405180910390f35b6103e66004803603604081101561039a57600080fd5b81019080803573ffffffffffffffffffffffffffffffffffffffff169060200190929190803573ffffffffffffffffffffffffffffffffffffffff1690602001909291905050506108e6565b6040518082815260200191505060405180910390f35b60008054600181600116156101000203166002900480601f0160208091040260200160405190810160405280929190818152602001828054600181600116156101000203166002900480156104925780601f1061046757610100808354040283529160200191610492565b820191906000526020600020905b81548152906001019060200180831161047557829003601f168201915b505050505081565b60008073ffffffffffffffffffffffffffffffffffffffff168373ffffffffffffffffffffffffffffffffffffffff1614156104d557600080fd5b81600560003373ffffffffffffffffffffffffffffffffffffffff1673ffffffffffffffffffffffffffffffffffffffff16815260200190815260200160002060008573ffffffffffffffffffffffffffffffffffffffff1673ffffffffffffffffffffffffffffffffffffffff168152602001908152602001600020819055508273ffffffffffffffffffffffffffffffffffffffff163373ffffffffffffffffffffffffffffffffffffffff167f8c5be1e5ebec7d5bd14f71427d1e84f3dd0314c0f7b2291e5b200ac8c7c3b925846040518082815260200191505060405180910390a36001905092915050565b60035481565b6000600460008573ffffffffffffffffffffffffffffffffffffffff1673ffffffffffffffffffffffffffffffffffffffff1681526020019081526020016000205482111561061957600080fd5b600560008573ffffffffffffffffffffffffffffffffffffffff1673ffffffffffffffffffffffffffffffffffffffff16815260200190815260200160002060003373ffffffffffffffffffffffffffffffffffffffff1673ffffffffffffffffffffffffffffffffffffffff168152602001908152602001600020548211156106a257600080fd5b61073182600560008773ffffffffffffffffffffffffffffffffffffffff1673ffffffffffffffffffffffffffffffffffffffff16815260200190815260200160002060003373ffffffffffffffffffffffffffffffffffffffff1673ffffffffffffffffffffffffffffffffffffffff1681526020019081526020016000205461090b90919063ffffffff16565b600560008673ffffffffffffffffffffffffffffffffffffffff1673ffffffffffffffffffffffffffffffffffffffff16815260200190815260200160002060003373ffffffffffffffffffffffffffffffffffffffff1673ffffffffffffffffffffffffffffffffffffffff168152602001908152602001600020819055506107bc848484610955565b600190509392505050565b60025481565b60046020528060005260406000206000915090505481565b60018054600181600116156101000203166002900480601f01602080910402602001604051908101604052809291908181526020018280546001816001161561010002031660029004801561087b5780601f106108505761010080835404028352916020019161087b565b820191906000526020600020905b81548152906001019060200180831161085e57829003601f168201915b505050505081565b600081600460003373ffffffffffffffffffffffffffffffffffffffff1673ffffffffffffffffffffffffffffffffffffffff1681526020019081526020016000205410156108d157600080fd5b6108dc338484610955565b6001905092915050565b6005602052816000526040600020602052806000526040600020600091509150505481565b600061094d83836040518060400160405280601e81526020017f536166654d6174683a207375627472616374696f6e206f766572666c6f770000815250610b23565b905092915050565b600073ffffffffffffffffffffffffffffffffffffffff168273ffffffffffffffffffffffffffffffffffffffff16141561098f57600080fd5b6109e181600460008673ffffffffffffffffffffffffffffffffffffffff1673ffffffffffffffffffffffffffffffffffffffff1681526020019081526020016000205461090b90919063ffffffff16565b600460008573ffffffffffffffffffffffffffffffffffffffff1673ffffffffffffffffffffffffffffffffffffffff16815260200190815260200160002081905550610a7681600460008573ffffffffffffffffffffffffffffffffffffffff1673ffffffffffffffffffffffffffffffffffffffff16815260200190815260200160002054610be390919063ffffffff16565b600460008473ffffffffffffffffffffffffffffffffffffffff1673ffffffffffffffffffffffffffffffffffffffff168152602001908152602001600020819055508173ffffffffffffffffffffffffffffffffffffffff168373ffffffffffffffffffffffffffffffffffffffff167fddf252ad1be2c89b69c2b068fc378daa952ba7f163c4a11628f55a4df523b3ef836040518082815260200191505060405180910390a3505050565b6000838311158290610bd0576040517f08c379a00000000000000000000000000000000000000000000000000000000081526004018080602001828103825283818151815260200191508051906020019080838360005b83811015610b95578082015181840152602081019050610b7a565b50505050905090810190601f168015610bc25780820380516001836020036101000a031916815260200191505b509250505060405180910390fd5b5060008385039050809150509392505050565b600080828401905083811015610c61576040517f08c379a000000000000000000000000000000000000000000000000000000000815260040180806020018281038252601b8152602001807f536166654d6174683a206164646974696f6e206f766572666c6f77000000000081525060200191505060405180910390fd5b809150509291505056fea264697066735822122020708fef85f6d718c2f2372cd38c6d5a0e9d32af7eaafc4c3bdeff78fc654eb564736f6c63430006020033",
  "source": "pragma solidity 0.6.2;\nimport \"@openzeppelin/contracts/token/ERC20/IERC20.sol\";\nimport \"@openzeppelin/contracts/token/ERC20/SafeERC20.sol\";\nimport \"@openzeppelin/contracts/utils/EnumerableSet.sol\";\nimport \"@openzeppelin/contracts/math/SafeMath.sol\";\nimport \"@openzeppelin/contracts/access/Ownable.sol\";\nimport \"./Token.sol\";\nimport \"./IDTToken.sol\";\n//import \"./NFT.sol\";\n//import \"./Exchange.sol\";\n\n// TODO:\n// [x] SET THE POOL ACCOUNT\n// [x] DEPOSIT TOKEN\n// [x] WITHDRAW TOKEN WITH INTEREST\n// [x] GENERATE TOKEN ON EACH BLOCK\n// [x] REWARD USER FOR STACKING\n// [X] I WANT MORE\n\ncontract Stacking is Ownable{\n\n    using SafeMath for uint256;\n    //using SafeERC20 for IERC20;\n\n  \n    mapping(address => uint256) public poolBalance; //mapping of token address and amount\n\n    address constant ETHER = address(0);\n    mapping(uint256 => mapping(address => uint256)) public stackers;\n  \n \n  \n    uint256 public stackCount;\n    uint256 public startBlock;\n    IDTToken public idt;\n    Token stk = new Token(); //***/ */\n    PoolInfo[] public poolInfo;\n    uint256 public bonusEndBlock;\n    uint256 public constant BONUS_MULTIPLIER = 10;\n    uint256 public idtPerBlock;\n    // Dev address.\n    address public devAddress;\n\n    uint256 public totalAllocPoint = 0;\n\n    event Deposit(address indexed user, uint256 indexed pid, uint256 amount);\n    event Withdraw(address indexed user, uint256 indexed pid, uint256 amount);\n\n \n    struct PoolInfo {\n        address tokenStack;           // Address of LP token contract.\n        uint256 allocPoint;       // How many allocation points assigned to this pool. SUSHIs to distribute per block.\n        uint256 lastRewardBlock;  // Last block number that SUSHIs distribution occurs.\n        uint256 accIDTPerShare; // Accumulated SUSHIs per share, times 1e12. See below.\n    }\n\n    constructor (IDTToken _token, address _devAddress, uint256 _idtPerBlock, uint _startBlock, uint256 _bonusEndBlock ) public {\n        idt = _token;\n        devAddress = _devAddress;\n        idtPerBlock = _idtPerBlock;\n        bonusEndBlock = _bonusEndBlock;\n        startBlock = _startBlock;    \n        }\nfunction poolLength() external view returns (uint256) {\n        return poolInfo.length;\n    }\n        // Add a new lp to the pool. Can only be called by the owner.\n    // XXX DO NOT add the same LP token more than once. Rewards will be messed up if you do.\n    function add(uint256 _allocPoint, address _lpToken, bool _withUpdate) public onlyOwner {\n        if (_withUpdate) {\n            massUpdatePools();\n        }\n        uint256 lastRewardBlock = block.number > startBlock ? block.number : startBlock;\n        totalAllocPoint = totalAllocPoint.add(_allocPoint);\n        poolInfo.push(PoolInfo({\n            tokenStack: _lpToken,\n            allocPoint: _allocPoint,\n            lastRewardBlock: lastRewardBlock,\n            accIDTPerShare: 0\n        }));\n    }\n\n    function deposit(uint256 _amount, uint256 _id) public payable {\n         //require token is approved\n         PoolInfo storage pool = poolInfo[_id];\n        updatePool(_id);\n        stackers[_id][msg.sender] = stackers[_id][msg.sender].add(_amount); \n        require(getERCtransferFrom(pool.tokenStack, msg.sender, address(this), _amount));\n         \n        emit Deposit(msg.sender, _id, _amount);\n    }\n\n    function withdraw(uint256 _amount, uint256 _id) public payable {\n        PoolInfo storage pool = poolInfo[_id];\n       require(stackers[_id][msg.sender] >= _amount); \n       updatePool(_id);\n        uint256 pending = stackers[_id][msg.sender].mul(pool.accIDTPerShare).div(1e12);\n        if(pending > 0) {\n            safeIDTTransfer(msg.sender, pending);\n        }\n        if(_amount > 0) {\n            stackers[_id][msg.sender] = stackers[_id][msg.sender].sub(_amount);\n            \n            getERCtransfer(pool.tokenStack,address(msg.sender), _amount);\n        }\n        emit Withdraw(msg.sender, _id, _amount);\n\n    }\n\n// Safe IDT transfer function, just in case if rounding error causes pool to not have enough IDTs.\n    function safeIDTTransfer(address _to, uint256 _amount) internal {\n        uint256 idtBal = idt.balanceOf(address(this));\n        if (_amount > idtBal) {\n            idt.transfer(_to, idtBal);\n        } else {\n            idt.transfer(_to, _amount);\n        }\n    }\n\n// mint some tokens\n\nfunction updatePool(uint256 _pid) public {\n      PoolInfo storage pool = poolInfo[_pid];\n         if (block.number <= pool.lastRewardBlock) {\n             return;\n         }\n        uint256 supply = getERCBalance(pool.tokenStack,address(this));\n        if (supply == 0) {\n            pool.lastRewardBlock = block.number;\n            return;\n        }\n  uint256 multiplier = getMultiplier(pool.lastRewardBlock, block.number);\n  uint256 idtReward = multiplier.mul(idtPerBlock).mul(pool.allocPoint).div(totalAllocPoint);\n        idt.mint(devAddress, idtReward.div(10));\n        idt.mint(address(this), idtReward);\n        pool.accIDTPerShare = pool.accIDTPerShare.add(idtReward.mul(1e12).div(supply));\n        pool.lastRewardBlock = block.number;\n}\n\n  // Update reward variables for all pools. Be careful of gas spending!\n    function massUpdatePools() public {\n        uint256 length = poolInfo.length;\n        for (uint256 pid = 0; pid < length; ++pid) {\n            updatePool(pid);\n        }\n    }\n\n// Return reward multiplier over the given _from to _to block.\n    function getMultiplier(uint256 _from, uint256 _to) public view returns (uint256) {\n        if (_to <= bonusEndBlock) {\n            return _to.sub(_from).mul(BONUS_MULTIPLIER);\n        } else if (_from >= bonusEndBlock) {\n            return _to.sub(_from);\n        } else {\n            return bonusEndBlock.sub(_from).mul(BONUS_MULTIPLIER).add(\n                _to.sub(bonusEndBlock)\n            );\n        }\n    }\n    \n\n // return the balance of stacker\n function stackingBalanceOf(uint256 _id, address _user) public view returns (uint256) {\n    return stackers[_id][_user];\n    }\n// return the balance of the pool for this token\n\nfunction balanceOfPool(address _token) public view returns (uint256) {\n    return poolBalance[_token];\n    }\n\n   // View function to see pending SUSHIs on frontend.\n    function pendingIDT(uint256 _pid) public returns (uint256) {\n        PoolInfo storage pool = poolInfo[_pid];\n        uint256 accIDTPerShare = pool.accIDTPerShare;\n        uint256 lpSupply = getERCBalance(pool.tokenStack, address(this));\n        if (block.number > pool.lastRewardBlock && lpSupply != 0) {\n            uint256 multiplier = getMultiplier(pool.lastRewardBlock, block.number);\n            uint256 idtReward = multiplier.mul(idtPerBlock).mul(pool.allocPoint).div(totalAllocPoint);\n            accIDTPerShare = accIDTPerShare.add(idtReward.mul(1e12).div(lpSupply));\n        }\n        return stackers[_pid][msg.sender].mul(accIDTPerShare).div(1e12);\n    }\n\n// EXTERNaL CALL TO ERC20 Contract\nfunction getERCapprove(address _token, address _spender, uint256 _value) public returns (bool){\n         stk = Token(_token);\n       return stk.approve(_spender, _value);\n   }\n    function getERCtransferFrom(address _token, address _from, address _to, uint256 _value) public returns (bool){\n         stk = Token(_token);\n       return stk.transferFrom(_from, _to, _value);\n   }\n    function getERCBalance(address _token, address _owner) public returns (uint256){\n         stk = Token(_token);\n       return stk.balanceOf(_owner);\n   }\n   function getERCtransfer(address _token, address _to, uint256 _value) public returns (bool){\n         stk = Token(_token);\n       return stk.transfer(_to, _value);\n\n}\n  function getERCname(address _token) public returns (string memory){\n         stk = Token(_token);\n       return stk.name();\n\n}\n  function getERCsymbol(address _token) public returns (string memory){\n         stk = Token(_token);\n       return stk.symbol();\n\n}\n\n\n}",
  "sourcePath": "/home/idecentralize/code/idecentralize-exchange/src/contracts/Stacking.sol",
  "compiler": {
    "name": "solc",
    "version": "0.6.2+commit.bacdbe57.Emscripten.clang"
  },
  "schemaVersion": "3.3.0",
  "updatedAt": "2020-12-01T22:40:10.135Z",
  "networkType": "ethereum",
  "devdoc": {
    "methods": {
      "owner()": {
        "details": "Returns the address of the current owner."
      },
      "renounceOwnership()": {
        "details": "Leaves the contract without owner. It will not be possible to call `onlyOwner` functions anymore. Can only be called by the current owner.     * NOTE: Renouncing ownership will leave the contract without an owner, thereby removing any functionality that is only available to the owner."
      },
      "transferOwnership(address)": {
        "details": "Transfers ownership of the contract to a new account (`newOwner`). Can only be called by the current owner."
      }
    }
  },
  "userdoc": {
    "methods": {}
  }
}